:100000000C94AA020C94F1020C94F1020C94F102EB
:100010000C94F1020C94F1020C94F1020C94F10294
:100020000C94F1020C94F1020C94BD270C949128CD
:100030000C94D6220C94F1020C94F1020C94F1026F
:100040000C94F1020C94F1020C94F1020C94F10264
:100050000C94F1020C942D230C94F1020C94F102F7
:100060000C94F1020C94F1020C94F1020C94F10244
:100070000C94F1020C94F1020C94F1020C94F10234
:100080000C94F1020C94F1020C94F1020C94F10224
:100090000C94F1020C94F1020C94F1020C94F10214
:1000A0000C94F1020C94F1020C94F102165C1E0007
:1000B0001F0020002100220023002400250026002C
:1000C00027002D002E0000002A002B000000140045
:1000D0001A000800150017001C0018000C00120080
:1000E00013002F003000310039000000040016001A
:1000F000070009000A000B000D000E000F0033007E
:10010000340028000000E10000001D001B00060074
:1001100019000500110010003600370038000000FB
:10012000E5000000E000E3000000E2000000000045
:100130002C00000000000000E600E700000001586D
:10014000E40035003A003B003C003D003E003F002B
:1001500040004100420043004400450000004C00C4
:100160002B000000C05CC15CC35CC55CC45C0000CB
:100170004B004900470048004A0046003100390062
:100180000000000000004E00CA5CCB5C5000510033
:1001900052004F0000004D0028000000E100000068
:1001A000BD00BE000000BC00AE00BB00A800AA005D
:1001B000A90000000000E5000000E000E3000000EE
:1001C000E200000000002C00000000000000E6003B
:1001D000E70000001050E40000047F3F1F64321469
:1001E000643214783C1E1E140A0522232526282971
:1001F0002A2C2D2F3032333536383A3B3D3E4042A3
:10020000434547494A4C4E5051535557595A5C5EE5
:100210006062646668696B6D6F71737577797B7DF9
:100220007F81838587898A8C8E90929496989A9CF8
:100230009E9FA1A3A5A7A8AAACAEAFB1B3B4B6B810
:10024000B9BBBCBEBFC1C2C3C5C6C7C9CACBCCCD72
:10025000CED0D1D2D2D3D4D5D6D7D7D8D9D9DADA4D
:10026000DBDBDBDCDCDCDCDCDDDDDDDDDCDCDCDCCD
:10027000DCDBDBDBDADAD9D9D8D7D7D6D5D4D3D201
:10028000D2D1D0CECDCCCBCAC9C7C6C5C3C2C1BFDF
:10029000BEBCBBB9B8B6B4B3B1AFAEACAAA8A7A543
:1002A000A3A19F9E9C9A98969492908E8C8A8987FF
:1002B0008583817F7D7B79777573716F6D6B6968DD
:1002C000666462605E5C5A5957555351504E4C4AB1
:1002D0004947454342403E3D3B3A3836353332305C
:1002E0002F2D2C2A292826252322FFAA7F554000BE
:1002F00001010101010101010102020202020202E7
:1003000002020303030303030303040404040404B9
:10031000040505050505060606060607070707077F
:1003200008080808090909090A0A0A0B0B0B0C0C32
:100330000C0D0D0D0E0E0E0F0F0F101011111112CE
:100340001213131414151516161717181819191A4D
:100350001A1B1B1C1D1D1E1E1F20202122222324B0
:1003600024252626272829292A2B2C2D2D2E2F30EF
:10037000313232333435363738393A3B3C3D3E3F03
:10038000404142434445464748494A4C4D4E4F50F0
:10039000515354555658595A5B5D5E5F61626465AE
:1003A0006668696B6C6D6F7072737577787A7B7D38
:1003B0007E8082838587888A8C8E8F91939596988C
:1003C0009A9C9EA0A2A3A5A7A9ABADAFB1B3B5B7A8
:1003D000BABCBEC0C2C4C6C9CBCDCFD1D4D6D8DB7F
:1003E000DDDFE2E4E7E9EBEEF0F3F5F8FAFDFF0A12
:1003F0000344005A0036003000000010034B004256
:10040000004400460061006E007300000004030910
:100410000409023B00020100A0FA090400000103E4
:10042000010100092111010001224000070581039B
:1004300008000A090401000103000000092111015C
:10044000000122B6000705820320000A1201000203
:10045000000000085A446022010001020001050169
:100460000902A10185020901A10005091901290854
:100470001500250195087501810205010930093132
:100480001581257F95027508810609381581257F1C
:10049000950175088106050C0A38021581257F959E
:1004A0000175088106C0C005010980A101850319F5
:1004B000012AB700150126B700950175108100C00B
:1004C000050C0901A101850419012AA002150126C4
:1004D000A002950175108100C005010906A10185E2
:1004E00006050719E029E715002501950875018122
:1004F000020507190029EF1500250195F075018106
:1005000002050819012905950575019102950175E6
:10051000039101C005010906A101050719E029E7BA
:100520001500250195087501810295017508810165
:100530000507190029FF150026FF0095067508819B
:1005400000050819012905950575019102950175A8
:10055000039101C011241FBECFEFDAE0DEBFCDBF93
:1005600004B603FE27C08091220390912303A0913B
:100570002403B09125038730904BA740B04BD1F4B2
:100580001092220310922303109224031092250349
:1005900014BE84B7877F84BF0FB6F894A895809166
:1005A0006000886180936000109260000FBEE0E000
:1005B000F8E3099511E0A0E0B1E0E0ECF6E502C057
:1005C00005900D92A83CB107D9F723E0A8ECB1E063
:1005D00001C01D92A232B207E1F70E9490130C9461
:1005E000362B0C94000081E0089581E008950C946E
:1005F000F50208950C94F9021F93CF93DF9300D076
:1006000000D00F92CDB7DEB749835A836B83309108
:10061000CA0189819A8131111DC06623B9F0222354
:10062000A9F00E947E09182F682F89819A810E9463
:100630002A0969817A81812F0F900F900F900F9076
:100640000F90DF91CF911F910C94E50F0E945609F6
:10065000182FEFCF0E947E0969817A81EDCFFC01CE
:10066000262F408151816281738184810C94FC0228
:1006700081E00895CF93DF93EC0160E00E942F03A7
:10068000BE01DF91CF910C94FA020E940C120E94DD
:10069000E5030E94011F0C9431120C94341280E087
:1006A0000E945A1E80E00E94E8030C94FB1A0895F1
:1006B00008950E94D3070E9458032FEF84E39CE023
:1006C000215080409040E1F700C000000C9451237D
:1006D0000F931F93CF93DF938C0161E00E942F0350
:1006E000EC01B8010E94F702882309F441C0B80167
:1006F000CE010E94251E8823D9F1B801CE010E94A7
:10070000FD208823A9F1B801CE010E943D1F882356
:1007100079F1B801CE010E946720882349F1B80120
:10072000CE010E947E1C882319F1F8018281882362
:1007300061F0CB35FDE5DF0721F170F4C115ECE583
:10074000DE07A1F0CF3DDC45C9F0C801DF91CF91B4
:100750001F910F910C94F302CC358DE5D807A1F0D1
:10076000CD35DD4591F70E942B0EEFCF0E94590346
:1007700080E0DF91CF911F910F9108950E94E50EC7
:10078000F7CF0E94340EE1CF0E94370EDECF0C94DB
:1007900057030E945A1D0E9459210E94E8030E949B
:1007A000C71B0C94C70308950C94D30381E00895EC
:1007B000CF93C82F0E94D603882319F0C1FD03C030
:1007C0002A9ACF9108952A98FCCF229A2A9A0895BE
:1007D000CF93C82F0E94D4038C2FCF910C94D803B1
:1007E000CF93DF93CDB7DEB72B970FB6F894DEBF6C
:1007F0000FBECDBF4F83588769877A878B8761117A
:100800000E94790D1E821D8285E0FE013796DE0171
:10081000119601900D928A95E1F78C819D81892B2B
:1008200089F449815A816B817C818D819E810E94EE
:100830009A0C2B960FB6F894DEBF0FBECDBFDF919A
:10084000CF91089589819A8189238F3F51F3CE01F9
:1008500001960E9438038111E4CFEBCFFC01808127
:1008600091810C94C009CF93C82F882309F48BC0C1
:100870008238C1F40E94592181FD85C089E30E941C
:10088000340D0E94A90D2FEF81EE94E0215080409D
:100890009040E1F700C0000089E30E943B0DCF913A
:1008A0000C94A90D8338A1F40E94592180FD6BC0DE
:1008B00083E50E94340D0E94A90D2FEF81EE94E094
:1008C000215080409040E1F700C0000083E5E5CF73
:1008D0008438A1F40E94592182FD55C087E40E940A
:1008E000340D0E94A90D2FEF81EE94E0215080403D
:1008F0009040E1F700C0000087E4CFCF8CEF8C0F71
:10090000813A90F46C2F80910201909103010E9432
:10091000CD21882329F08C2F0E943B0D0E94A90D28
:100920008C2F0E94340DBBCF80E28C0F883048F4AE
:10093000C77081E001C0880FCA95EAF70E945C0D7C
:10094000AECFEBE5EC0FE33040F4F0E0E65AFE4FBB
:10095000808190E0CF910C948D21E8E5EC0FE73198
:1009600050F4F0E0EE0FFF1FE45DFE4F80819181B7
:10097000CF910C94A321CD3E30F08C2F0E942014F7
:10098000CF910C94F314CF910895882309F452C0A9
:10099000823871F40E94592181FF4CC089E30E9482
:1009A000340D0E94A90D89E30E943B0D0C94A90D02
:1009B000833859F40E94592180FF3CC083E50E948E
:1009C000340D0E94A90D83E5EFCF843859F40E94BD
:1009D000592182FF2FC087E40E94340D0E94A90D87
:1009E00087E4E2CF9CEF980F913AF0F290E2980FF3
:1009F000983050F4877091E001C0990F8A95EAF71A
:100A0000892F0E94620DD2CF9BE5980F933020F47E
:100A100090E080E00C948D2198E5980F973120F4B8
:100A200090E080E00C94A3218D3E20F00E947A1487
:100A30000C94F31408951F93CF93DF93182FEB01B9
:100A40000E943304209731F4812FDF91CF911F91C1
:100A50000C94C5048FE99FE00197F1F700C00000F6
:100A60002197F0CF70E060E0893311F460E570E029
:100A70000C941B05882321F00E945C0D0C94A90D99
:100A80000895882321F00E94620D0C94A90D089509
:100A9000BF92CF92DF92EF92FF920F931F93CF936B
:100AA000DF936C01D62FC72FFC011281F580F294E1
:100AB0009FE0F9220E94520DE82E8823B9F0E12E22
:100AC0001123A1F08C2F807F803421F080E28D0FE4
:100AD0008830B0F08091C60282FD12C082E00E9490
:100AE000FA0D0E94520D91E0E82EE926BC2EB29438
:100AF0008FE0B822EB2DF0E0E85CF44D0C949D2AD9
:100B0000E12CF4CF0C2F0F70C07F11F00295007F05
:100B1000112399F0002359F080E28D0F883010F0F6
:100B2000D11107C0802F0E945C0D0E94A90D8D2F4E
:100B300041C0802F0E946C0DF8CF8D2F0E94C504FC
:100B4000002309F43FC080E28D0F883010F0D111EE
:100B500004C0802F0E94620D03C0802F0E94720D7E
:100B60000E94A90D2FC00C2F0F70C07FC03211F052
:100B70000295007FDD2381F0D13009F469C0112393
:100B800009F473C0FF2009F469C0F601858180FF74
:100B9000CECF8F70858362C08091C60282FF38C03D
:100BA000112359F0002329F0802F0E945C0D0E9430
:100BB000A90D80E00E94330405C080E00E94C504B6
:100BC0000111C7CFEB2DE850FF0B349720F40E94A2
:100BD00059210E94E803EE2009F482C10E944E0DC3
:100BE00080FD7EC1F60112820E94480D0E948E088F
:100BF000C6010E9491070E94480DDF91CF911F917D
:100C00000F91FF90EF90DF90CF90BF900C94AF08C2
:100C1000112389F0F11006C00E948C0D802B0E94D8
:100C20003A05D0CFF1E0FF12F7CF0E948C0D802B58
:100C30000E94920DC7CFF11006C00E949F0D802F19
:100C40000E944105BFCF21E0F21609F4BBCFF5CFDA
:100C5000112331F032E03F1508F4B4CF802FDFCFFD
:100C600081E08F1508F4AECFEACFFF2041F3D933EE
:100C700049F4FFEF27EE33E0F15020403040E1F738
:100C800000C000008D2F0E94C5049CCF8C2F86953C
:100C90008695837069F0813009F094CF8D2F9C2F59
:100CA0009370111102C090E080E00E94A3218ACFCE
:100CB0008D2F9C2F9370111102C090E080E00E9454
:100CC0008D2180CF8D2F112329F00E9420140E94A6
:100CD000F31478CF0E947A14FACF8C2F837009F026
:100CE00041C011116FCF4D2F429546954770440F6B
:100CF000440F0D2F0F7010E030E020E0042E04C0F0
:100D0000000F111F221F331F0A94D2F760E070E01A
:100D1000CB01D4FF0FC06FE070E080E090E004C032
:100D2000660F771F881F991F4A95D2F760957095B7
:100D300080959095C695C695C370602B712B822BBC
:100D4000932BC23049F058F4C13019F00E9440088A
:100D500039CF0E942E0836CF0E94520833CF0E940E
:100D60002C0830CF8695112311F08C2F81708823A9
:100D700009F428CF4D2F429546954770440F440FF4
:100D80000D2F0F7010E030E020E0042E04C0000FA3
:100D9000111F221F331F0A94D2F760E070E0CB01CD
:100DA000D4FF0FC06FE070E080E090E004C0660FF9
:100DB000771F881F991F4A95D2F760957095809587
:100DC0009095C695C695C370602B712B822B932B83
:100DD000C23049F058F4C13019F00E940509F2CE32
:100DE0000E94F308EFCE0E941709ECCE0E9468081B
:100DF000E9CECF70112329F08C2F0E948E088D2F01
:100E00000ECF8D2F0E9441058C2F0E94AF08DACEA5
:100E1000D23F51F160F4D03FB9F0D13F81F01123BE
:100E200009F449C0F11083CE8C2F8F7121C0D33FBC
:100E300011F1D43FA1F78091C60282FF26C08C2F0A
:100E40008F71112311F314C0112349F081E08F1524
:100E500008F4B8CE8C2F8F710E94D208B3CE92E0E6
:100E60009F1508F4AFCEF6CF8C2F8F711111CDCF17
:100E70000E948E08A7CE112329F08C2F8F710E941B
:100E80007908A0CE0E9474089DCE112349F0CF713D
:100E90008C2F0E948E0863E08C2F0E94DF0D92CE73
:100EA00081E00E94FA0DE1E0EF1508F08BCE82E0C0
:100EB0000E94FA0D87CEF110DACE8C2F8F71A5CF5C
:100EC0004C2F4F706D2FC6010E94E10F0E94EE095A
:100ED00079CE4C2F4F706D2FC6010E94E40F72CE59
:100EE000DF91CF911F910F91FF90EF90DF90CF9006
:100EF000BF9008950F931F93CF93DF93EC01688108
:100F000079818A810E94CA098C010E9429090E9464
:100F10002B08B801CE01DF91CF911F910F910C9456
:100F20004805CF93DF93EC018B819C81892B29F0BD
:100F30008881998189238F3F59F4DF91CF9108955A
:100F4000CE010E947A07CE01DF91CF910C943A0333
:100F5000CE010E9468038111F3CF0E94520D8823B5
:100F600061F38A81882349F38091C60282FDE5CF2F
:100F700082E0DF91CF910C94FA0D90E080E00E9426
:100F80008D2190E080E00E94A3210E94790D0E94B3
:100F9000890D0E94A90D0E941A160C94F3140E9448
:100FA000420D0C94BD070E94690D0C94CF07E92FE8
:100FB000E295EF70E250EE3070F4F0E0E85BF44D53
:100FC0000C949D2A803F19F020F4883E20F481E0A3
:100FD0000895843FE1F380E00895883EC0F3813FA7
:100FE000D1F7F5CF93FB882780F90895FC01808124
:100FF00091810E94C0090C94D707CF93DF9300D052
:1010000000D00F92CDB7DEB70F900F900F900F90DA
:101010000F90DF91CF910895CF93DF9300D000D050
:1010200000D0CDB7DEB726960FB6F894DEBF0FBE60
:10103000CDBFDF91CF91089508950C941C080E94B4
:101040001D08609301027093020280930302909343
:1010500004020C94BD0708950C941F080F931F936E
:1010600000910102109102022091030230910402CA
:10107000602B712B822B932B1F910F910C941F08C7
:101080000F931F930091010210910202209103021D
:101090003091040260237123822393231F910F91C7
:1010A0000C941F080F931F930091010210910202EC
:1010B0002091030230910402602771278227932731
:1010C0001F910F910C941F080C941C080C94640839
:1010D0000E9466086093FD017093FE018093FF01FA
:1010E000909300020C94BD0760E070E0CB010C947B
:1010F00068080F931F9341E050E060E070E08A01C0
:101100009B0104C0000F111F221F331F8A95D2F7C5
:10111000C901B8011F910F910C9468080F931F9398
:1011200041E050E060E070E004C0440F551F661FCE
:10113000771F8A95D2F78091FD019091FE01A091D1
:10114000FF01B09100028A019B01082B192B2A2B69
:101150003B2BC901B8011F910F910C9468080F93A4
:101160001F9341E050E060E070E004C0440F551F61
:10117000661F771F8A95D2F7CB01BA0160957095EB
:10118000809590950091FD011091FE012091FF0145
:101190003091000260237123822393231F910F91CA
:1011A0000C9468080F931F9341E050E060E070E0FA
:1011B00004C0440F551F661F771F8A95D2F7809190
:1011C000FD019091FE01A091FF01B09100028A0102
:1011D0009B01082719272A273B27C901B8011F911E
:1011E0000F910C9468080F931F930091FD011091CB
:1011F000FE012091FF0130910002602B712B822BA8
:10120000932B1F910F910C9468080F931F930091DB
:10121000FD011091FE012091FF0130910002602339
:101220007123822393231F910F910C9468080F93CD
:101230001F930091FD011091FE012091FF0130915B
:10124000000260277127822793271F910F910C942A
:10125000680808952FE0929F800D1124982F9770B1
:1012600041E001C0440F9A95EAF7869586958695E8
:1012700095E0899FF0011124E553FE4F90E080E056
:1012800070E05191DF0111979B01082E02C0369545
:1012900027950A94E2F721702195252724232527F5
:1012A0002C9301968530910561F708952FE0929F68
:1012B000800D1124982F977086958695869525E048
:1012C000829FF0011124E553FE4F50E040E080E0A2
:1012D000219130E0092E02C0369527950A94E2F755
:1012E00021703327042E01C0220F0A94EAF7822BC3
:1012F0004F5F5F4F4530510559F70895BF92CF9228
:10130000DF92EF92FF920F931F93CF93DF938C01A5
:10131000C090FD01D090FE01E090FF01F09000022E
:101320008091010290910202A0910302B091040207
:10133000C82AD92AEA2AFB2ACFE1D0E0BC2ED7015D
:10134000C6010C2E04C0B695A795979587950A946B
:10135000D2F780FD0EC0219788F7B12C8B2DDF913D
:10136000CF911F910F91FF90EF90DF90CF90BF90A2
:101370000895B8018C2F0E941411019761F3EECFEC
:10138000CF93DF93EC010E947E09BE01DF91CF91E4
:101390000C9414111F93CF93DF93EB019091CA012A
:1013A000992331F0CB01DF91CF911F910C94C009AB
:1013B000882379F0CB010E947E09182F682FCE0177
:1013C0000E942A09BE01812FDF91CF911F910C94B9
:1013D0001411CB010E945609182FF4CFEF92FF92FF
:1013E0000F931F93CF93DF938C01892B81F0F12C06
:1013F000EE24E394E8012196F8018491843770F497
:10140000843008F05FC08130B1F08230A1F1DF910B
:10141000CF911F910F91FF90EF900895853709F4B8
:101420004CC008F43DC09CE7980F903780F78F7749
:101430000E94C50449C00E5F1F4FFE01849190E2D7
:10144000980F983060F48770FE2D01C0FF0F8A95C9
:10145000EAF78F2F0E947C0D0E94A90D02C00E9406
:1014600033048F2D815030F2EFE9FFE03197F1F72F
:1014700000C00000F7CF0E5F1F4FFE01849190E285
:10148000980F983050F48770FE2D01C0FF0F8A9599
:10149000EAF78F2F0E94820DDFCF0E94C504E1CFB3
:1014A0000E5F1F4FFE01C491C150D8F28FE99FE03B
:1014B0000197F1F700C00000F7CF0E5F1F4FFE014C
:1014C000F490CFCF0E9433048E01CBCF1F93CF93E4
:1014D000DF93C091050216E0809106028C1304C0D0
:1014E000DF91CF911F910895D0E01C9FF0011D9FC7
:1014F000F00D1124E95FFD4F4081518162817381BC
:10150000848195810E940C082196C770E5CF409197
:101510003702509138026091390270913A028091FD
:101520003B0290913C020C940C08FF920F931F9386
:10153000CF93DF9380913C02807FD1F48091390278
:101540008823B1F080910502109106026091370264
:1015500070913802A0913A02B0913B02062F072306
:10156000C0910001D091010196E0F92E181306C038
:10157000DF91CF911F910F91FF90089590E0109708
:1015800011F00F3F19F401968770F0CFF89E90018B
:10159000F99E300D1124F901E95FFD4F4181471398
:1015A000F2CF40814613EFCF42814111ECCF43810E
:1015B00054814A1B5B0B4C175D0728F780913C0256
:1015C0008F70806180933C02F901E45FFD4F808160
:1015D0008F708061808387E392E00E949107DF91A2
:1015E000CF911F910F91FF900C94660AAF92BF921A
:1015F000CF92DF92EF92FF920F931F93CF93DF93DF
:10160000CDB7DEB761970FB6F894DEBF0FBECDBF82
:101610008C0185E0F801DE011D9601900D928A95FE
:10162000E1F7F801E28087E3C82E82E0D82E6091CE
:101630003A0270913B026115710509F45FC1909106
:10164000370220913802892F82238F3F09F456C137
:1016500040815181A380B480F0903902F501E61BEE
:10166000F70BBF01E0910001F0910101FF2009F4A7
:10167000F6C080913C02382F307F6E177F0708F04C
:10168000AFC0311179C0FE2C251323C0941321C0A3
:10169000E1101FC08F70806180933C020E94870A16
:1016A000C6010E94910780913C02F80185838F2D2D
:1016B00061960FB6F894DEBF0FBECDBFDF91CF911C
:1016C0001F910F91FF90EF90DF90CF90BF90AF9060
:1016D0000895AB2829F0842F85238F3F09F027C177
:1016E00080E0F82FF170DF2E80FF3CC08091050272
:1016F0002091060236E0821315C04D875E878D85E6
:101700009E850E94C009292F22952F702230F0F06B
:10171000243018F59F70F1F0F8019581907FD1F495
:10172000D12C1EC090E0389FF001399FF00D11249C
:10173000E95FFD4F6181651306C06081641303C0DA
:1017400062816E110FC001968770D5CF9F7011F026
:10175000882331F3805E883018F3C8010E94910716
:10176000FD2CA5CFEE2009F4A2CF80913C02816030
:1017700080933C02F12C9BCF251306C0941304C028
:10178000F801EE2009F487C0C8010E94F6078823FB
:1017900019F1EE2009F180913C02803270F0209125
:1017A00037023091380238872F831986BB86AA8684
:1017B0008C87CE0107960E94910786E0F801A7E387
:1017C000B2E001900D928A95E1F70E94950A0E947D
:1017D000870AFF24F3946BCFC8010E949107F9CFC9
:1017E000311113C07A2DB98AA88A6E2D89890E9479
:1017F000FD0787E392E00E94910786E0F6011192CF
:101800008A95E9F70E94870AB5CF25130FC0941374
:101810000DC0E1100BC0F8018583C8010E9491073B
:1018200086E0F60111928A95E9F741CFC8010E943E
:10183000F607882389F2EE2079F280913C0280320B
:1018400008F4BBCF20913702309138023A832983C4
:101850001B82BD82AC828E83CE010196ACCF6E1707
:101860007F0708F03EC0FE2CEE2009F4B5CF25130B
:101870002AC0941328C080913C0280FD1BC0982F81
:10188000907FC1F0F8018583903F31F0982F907FD1
:10189000905F8F70892B8583C8010E94910786E035
:1018A000F801A7E3B2E001900D928A95E1F70E945A
:1018B000870AFDCE86E0F801A7E3B2E001900D9221
:1018C0008A95E1F7F4CEC8010E94F607811175CF21
:1018D00080913C02816080933C02C8010E94910784
:1018E000E6CE7A2DB98AA88A6E2D89890E94FD07D5
:1018F00086E0F60111928A95E9F7D9CFEE2009F436
:101900006BCFC8010E94F607F82E882309F464CF34
:1019100086E0F801A7E3B2E001900D928A95E1F725
:1019200087E392E00E942E040E94950AC0CF81E0D6
:101930008E25D7CE1F93CF93DF93CDB7DEB72C97ED
:101940000FB6F894DEBF0FBECDBF4F8358876987AF
:101950007A878B879C87CE0107960E94F60A882398
:1019600069F08A859B85892B39F04F815885842FB2
:1019700085238F3F09F071C016E05FC086E0FE014D
:101980003796DE01119601900D928A95E1F78A85CE
:101990009B85892B89F38F81988589238F3F61F3FC
:1019A0002091060230E0C901019687709927409185
:1019B00005024817190671F40E94D3071092060217
:1019C0001092050286E0E7E3F2E0DF011D928A95BE
:1019D000E9F7D2CF96E0929FD001939FB00D1124EA
:1019E000A95FBD4FFE01319601900D929A95E1F7E6
:1019F000809306020E94660ABFCF819FC001112416
:101A0000895F9D4F0E94F60A8823E9F0E091050264
:101A10001E9FF0011124E95FFD4F408151816281D9
:101A20007381848195810E940C088091050290E069
:101A30000196877099278093050280910502909105
:101A400006028913DACF2C960FB6F894DEBF0FBECC
:101A5000CDBFDF91CF911F91089569857A858B85E0
:101A60009C850E940C0888CF682F8091020190917C
:101A700003010C944D22682F809102019091030183
:101A80000C94582280910201909103010C946322DE
:101A900080913D02859585958595089580913D02BB
:101AA0008770089590913D02977081E009F480E07D
:101AB000089580916102089590916102892B80932D
:101AC000610208958095909161029823909361023C
:101AD000089510926102089590916002892B80937D
:101AE000600208958095909160029823909360021F
:101AF000089510926002089590915F02892B80935F
:101B00005F020895809590915F02982390935F0201
:101B1000089510925F02089580913E0208950895FD
:101B20000C948F0D9091C60292FD08C090913E02D8
:101B3000981721F080933E020C94900D08958091A7
:101B40003E02882329F010923E0280E00C94900D12
:101B50000895E0910201F091030180916102808378
:101B6000E0910201F0910301808190916002892B44
:101B70008083E0910201F0910301808190915F02E6
:101B8000892B808390913E02992381F0E09102019C
:101B9000F09103018081892B8083809102019091D3
:101BA00003010E94B92181110E949F0D80910201C1
:101BB000909103010C94652108950C94DC0D909193
:101BC000C60292FD10C098E0899F90011124622BFB
:101BD00060933D020E948E0880913D028595859517
:101BE00085950C94DD0D0C948E0810923D0280E0DA
:101BF0000C94DD0D90913D028095892380933D02E8
:101C0000282F277091F4282F082E000C330B9217E1
:101C1000130659F09091C60292FD07C085958595EF
:101C200085950E94AF080C94F50D08959091C60219
:101C300092FB222720F9281769F080FB92F99093F4
:101C4000C6028091C5029091C6020E94610E82E098
:101C50000C94FA0D08958091C60282FB882780F9C2
:101C600091E089270C94160E81E00C94160E80E00A
:101C70000C94160E6FEF7FEF90E080E00C94202B19
:101C800090E080E00E94FC2A21E0893E9E4F09F00E
:101C900020E0822F089582E090E00C94EE2A83E009
:101CA00090E00C94EE2ACF9384E090E00E94EE2A1C
:101CB000C82F82E290E00E94EE2A982F8C2FCF91BD
:101CC0000895CF93C92F682F84E090E00E94022BE3
:101CD0006C2F82E290E0CF910C94022BAB01BC01FF
:101CE0008FE090E00C94142BAB01BC0183E190E0F9
:101CF0000C94142B60E070E0CB010C94740E60E047
:101D000070E0CB010E946E0E0C947A0E69EE7EEFAD
:101D100090E080E00E94202B60E082E090E00E9452
:101D2000022B60E083E090E00E94022B10920102FF
:101D300010920202109203021092040260E084E00A
:101D400090E00E94022B60E082E290E00E94022B71
:101D500060E085E090E00E94022B60E086E090E089
:101D60000E94022B6FEF87E090E00E94022B40E080
:101D700050E0BA0188E090E00E94142B60E08DE012
:101D800090E00E94022B40E050E0BA0188E190E030
:101D90000E94142B60E087E190E00E94022B40E05B
:101DA00050E0BA018CE190E00E94142B70E060E0FA
:101DB00080E290E00E94202B40E050E0BA0188E1F0
:101DC00090E00E94142B0C947F0E0C94860E682FCA
:101DD0008EE090E00C94022B0E941223609371021B
:101DE00070937202809373029093740260936D02F9
:101DF00070936E0280936F0290937002089585B77E
:101E0000806885BF85B7806885BF08950895089567
:101E10000C94060F08950C940A0F0E94FF0E82EF97
:101E200091E10E944F210E94070F0C94080F81E05E
:101E300008950C94170F089508950E941B0F0C9499
:101E40001C0F0E94FD220E94EA120E945A1D0E944D
:101E50008C1B0C940B0F8F929F92AF92BF92CF92DC
:101E6000DF92EF92FF920F931F93CF93DF93CDB743
:101E7000DEB72A970FB6F894DEBF0FBECDBF0E9423
:101E8000FF1281110E94EC0E53E6852E52E0952E32
:101E900010E000E0A02E802F0E9436126C01F401A9
:101EA000E190F1904F01E816F90609F460C08091C5
:101EB000750281FD0E943F12C7018C259D25B12C22
:101EC000EE24E394F12C9C012E213F21232B09F4D5
:101ED00048C00E94190F8823A9F0BE82AF82CE208D
:101EE000DF2081E0CD2809F480E088870E94062366
:101EF0008160782F9A8789874E815F8168858A857E
:101F00000E94F003000F111FF801ED59FD4F808171
:101F10009181E826F926F182E0820E94D01B0E947E
:101F2000001F0E940E150E9459219091620289178C
:101F3000A9F10E945921809362022A960FB6F89463
:101F4000DEBF0FBECDBFDF91CF911F910F91FF90EC
:101F5000EF90DF90CF90BF90AF909F908F900C94B8
:101F6000E803B394EE0CFF1CFFE0BF12ACCF0F5F91
:101F70001F4F0530110509F08DCF8FEF89838A83BC
:101F80001B820E9406238160782F9D838C83498168
:101F90005A816B818D810E94F003BFCF2A960FB6C4
:101FA000F894DEBF0FBECDBFDF91CF911F910F918F
:101FB000FF90EF90DF90CF90BF90AF909F908F9069
:101FC000089590E080E008950895972F70E02FE045
:101FD000929F600D711D1124FB019BE4899FE00D10
:101FE000F11D1124EE0FFF1FE455FF4F85919491D1
:101FF0000895FC01EE0FFF1FE852FE4F859194916A
:102000000895CF93DF930E941811EC01811520E50C
:10201000920708F042C0811530E4930708F0BDC074
:10202000883E910528F5803E910508F09DC0883ACC
:10203000910588F4853A910508F08FC081309105AB
:1020400009F492C0009709F48FC0049708F08CC07F
:10205000D0E0C0E089C08F3B910508F489C0805C66
:102060009109C03CD105A0F30E94F90FEC017CC09E
:102070008115904250F4C11581E0D80708F074C072
:10208000CD3ED10528F3D0656FC0C11590E3D907C7
:1020900008F079C0CE019F70E7CF811525E5920742
:1020A00058F5811534E5930708F0A6C0811542E57F
:1020B000940750F4C11581E5D80708F471C0DC2FEE
:1020C000CC27C16FD06A50C0982F969596959E01E7
:1020D00023703327C115D34508F07FC0C1E0D0E09D
:1020E00002C0CC0FDD1F2A95E2F720E2929FC001CB
:1020F0001124C82BD92B6FC0C11589E5D807A8F4C6
:10210000C11598E5D90708F07CC0C11526E5D207AE
:1021100008F09ECF8C2F0E94AF11C82FD0E0DC2F8B
:10212000CC27CC27DF71D0621FC0C1153AE5D30799
:1021300008F46CC0CE0190568115904208F088CF0B
:102140008D2F8F710E94AF1190E0982F88278827DC
:102150009F719C012C2BE901E6CFC55AD0E0C557F1
:10216000DE4FC881D0E0D064CE01DF91CF910895D9
:10217000C85AD0E0CC0FDD1FC35ADE4F0990D8817A
:10218000C02DD464F1CFCE019927D3FF03C0EC0159
:10219000D86CEACFEC01D06CE7CFDF70D06AE4CF27
:1021A000CE01E4E096958795EA95E1F783702C2FB0
:1021B00026952695237090E2299F90011124382BB3
:1021C0008C2F8370C1E0D0E002C0CC0FDD1F8A9558
:1021D000E2F7C22BD32BDC68C7CFC1E0D0E002C04E
:1021E000CC0FDD1F2A95E2F730E2939FC001112446
:1021F000C82BD92BDA68B8CFD82FCC27C46FD06AB8
:10220000B3CFDC2FCC27C06FD06AAECF8C2F8F70AE
:102210000E94AF1134E0D695C7953A95E1F7CF709B
:102220009C2FEC01D069A0CF0E94E50F0C94011007
:1022300082389105B1F1B0F48133910509F475C08C
:1022400048F48932910509F469C08A32910509F48C
:1022500073C008958533910509F459C089339105F8
:1022600001F10895833E9105A9F138F4803E91056E
:10227000F9F0823E910549F10895863E9105A9F154
:10228000873E9105C9F1843E910519F52091C6025A
:1022900021FF1FC08091C50284FD14C087EE90E02D
:1022A00008952091C5022370A1F080EE90E008957A
:1022B0002091C50220FD47C03091C60230FF09C001
:1022C00024FF44C090E080E004C02091C50222FDBC
:1022D000F7CF08952091C50222FD3BC03091C60280
:1022E00030FDE3CF24FFF5CFEDCF2091C50223FFD2
:1022F000F0CF24FDE7CFD2CF2091C50223FD2CC023
:102300003091C60231FFEECF84EE90E00895209127
:10231000C50225FFDECF89E290E008952091C50235
:1023200025FFD7CF85E390E008952091C50226FFD1
:10233000D0CF8AE290E008952091C50226FFC9CF50
:1023400081E390E0089589E390E0089583EE90E0C2
:10235000089582EE90E0089586EE90E008959091C1
:10236000C50292FF06C0282F28712830F9F4877F14
:10237000846093FF06C0282F28712831F1F4877EEE
:1023800084612091C60220FF06C0382F3871383092
:10239000D9F4877F816021FF06C0282F287128315A
:1023A000D1F4877E816194FD877E0895282F247162
:1023B0002430F9F68B7F8860DCCF282F24712431FC
:1023C00001F78B7E8861DDCF382F3171313019F7FD
:1023D0008E7F8860E0CF282F2171213121F78E7EFA
:1023E0008861E1CF80E008950C943A0E0E94FF12BC
:1023F0008FE39CE90197F1F700C000000E94FF12F3
:1024000080E00E94361280FF04C00E94F4110C94F8
:10241000512308950C94F6110E94400E811102C0C0
:102420000E94E50E0E944B0E809375020E94530E8F
:102430009093C6028093C5020E940A120E944F0E1A
:10244000682F70E090E080E00E942C086091FD0110
:102450007091FE018091FF01909100020C9466083A
:1024600008950C94301208950C943312E82FF0E084
:10247000EE0FFF1FEF52FD4F808191810895089567
:1024800080EA8A95F1F7089500C008950C944012EF
:10249000F894E82FE295EF70F0E031A1282F2F702B
:1024A00081E090E001C0880F2A95EAF7982F909577
:1024B000932391A392A1892B82A378940895CF931B
:1024C000DF93CDE9D1E089918F3F11F00E9448124E
:1024D00081E0C23AD807B9F7CEE8D1E089918F3FC1
:1024E00011F00E94481281E0CD39D807B9F7DF9189
:1024F000CF910895AF92BF92DF92EF92FF920F9328
:102500001F93CF93DF938C01D62EC62FD0E0CE0140
:1025100083569E4F7C01FC0120812F3F09F44DC062
:10252000F894E22FE295EF70F0E031A12F7081E096
:1025300090E001C0880F2A95EAF7932F982B91A37A
:1025400092A18095892382A378940E944412EEE898
:10255000F1E04DE951E021E030E0B12CA12C619196
:102560006F3FA9F1A62FA295AF70B0E090968C9125
:1025700090E06F7002C0959587956A95E2F780FDAF
:1025800026C0C901A82AB92A220F331F4E175F0798
:1025900031F7F70180818F3F11F00E94481261E00E
:1025A000A114B10409F460E08D2D0E944612CC0FF5
:1025B000DD1FC00FD11FB982A882DF91CF911F917B
:1025C0000F91FF90EF90DF90BF90AF90089590E053
:1025D00080E0D8CF0E945F128AE0E1EDF2E0DF01F7
:1025E000982F1D929A95E9F7E7ECF2E0DF011D9232
:1025F0008A95E9F785E00E944A130C944503FF92FF
:102600000F931F93CF93DF93CDB7DEB72A970FB603
:10261000F894DEBF0FBECDBF8E010F5F1F4F8AE063
:10262000F80111928A95E9F7F12C6F2DC8010E94EB
:102630007A12F394F5E0FF12F8CF4AE050E0B801C7
:1026400087EC92E00E94E12AFF24F394009709F4BA
:10265000F12C892B41F08AE0F801A7ECB2E001905F
:102660000D928A95E1F72F2D45E061ED72E087EC40
:1026700092E00E944B130E944D038F2D2A960FB6B5
:10268000F894DEBF0FBECDBFDF91CF911F910F91A8
:10269000FF9008950895FF920F931F93CF93DF93B8
:1026A000F82E092F162FD72FC42F222349F081E0AF
:1026B000809378020E94062390937702809376029B
:1026C000809178028823A1F0809176029091770220
:1026D0000E941E23059760F0EF2DF02FA12FBD2F34
:1026E00090E080E0D0E08C179D0744F010927802D3
:1026F000DF91CF911F910F91FF900895219131911A
:102700002D933D930196EFCF0E9417250E94210F34
:102710000C9423250E9427250E942B0F0C94412501
:102720000E948F220E94FE240E940D0F0E9484139B
:102730000E948A130E941D0FFBCF80917F0280FFB1
:1027400012C06091090185E0689FB0011124759560
:1027500067957595679560387105A8F561157105E0
:10276000A1F1862F089581FF09C06091090185E0DC
:10277000689FB001112475956795EDCF60910901AF
:1027800082FD0AC080917E028823D1F090910801D9
:1027900060910901891728F085E0689FB001112434
:1027A000DACF869FB001112485E0869F9001879F34
:1027B000300D1124692F70E0C9010E94672ACBCF28
:1027C00065E070E0CECF8FE7089581E008958091B5
:1027D0007F0280FF0CC06091050170E075956795E0
:1027E000759567956115710549F1862F089581FFEB
:1027F00006C06091050170E075956795F3CF609113
:10280000050182FD0BC090917D029923A1F060919A
:10281000040180910501961738F0682F70E0603848
:10282000710500F38FE70895899FC001112470E0BE
:102830000E94672AF4CF61E070E0D7CF81E008956D
:102840008D3E31F40E949D138195809383020895FB
:102850008E3E19F40E949D13F8CF8F3E31F40E94F2
:102860009D138195809382020895803F19F40E9400
:102870009D13F8CF893F29F40E94E71380938402C7
:1028800008958A3F21F40E94E7138195F7CF8B3F8B
:1028900031F40E94E71381958093850208958C3F5F
:1028A00019F40E94E713F8CF9FE0980F983070F466
:1028B000815F990B21E030E001C0220F8A95EAF791
:1028C00080918102822B8093810208958D3F31F4A3
:1028D00080917F02816080937F0208958E3F21F472
:1028E00080917F028260F7CF8F3FB9F780917F029E
:1028F0008460F1CF409182028D3E59F48091830231
:1029000087FF0DC01092830241110BC010927E020E
:1029100008C08E3E81F48091830218169CF34423F4
:1029200081F08091840290918502892B09F05AC030
:1029300010927D0208958F3E49F447FFF0CF109228
:102940008202809183028111ECCFE0CF803F19F4A5
:102950001416ACF3E4CF90918402893F29F4191640
:10296000F4F610928402DBCF8A3F19F497FFD7CF99
:10297000F8CF909185028B3F29F497FFD0CF10922A
:102980008502CDCF8C3F19F41916CCF3C8CF9FE048
:10299000980F983090F4815F990B21E030E0B901F5
:1029A00002C0660F771F8A95E2F7CB018095909160
:1029B0008102892380938102B2CF8D3F31F48091CF
:1029C0007F028E7F80937F02AACF8E3F21F4809179
:1029D0007F028D7FF7CF8F3F09F0A1CF80917F02DB
:1029E0008B7FF0CF08950E9406239C019091820274
:1029F00080918302982B21F030937C0220937B02FC
:102A00009091840280918502982B21F030937A0274
:102A10002093790280E892E00C947F21EF92FF925C
:102A20000F931F93CF93DF9300D000D000D0CDB78A
:102A3000DEB786E0E0E8F2E0DE01119601900D924B
:102A40008A95E1F7E0908202F0908302009184027F
:102A500010918502109282021092830210928402D9
:102A6000109285028E2D8F2991F080917B0290919A
:102A70007C020E941E23AC0190917E02992309F4EE
:102A80003FC080910A018417150608F447C0802FC3
:102A9000812B91F08091790290917A020E941E23FD
:102AA000AC0190917D02992309F477C080910601D1
:102AB0008417150608F47FC08091820290918302EA
:102AC000892B90918402892B90918502892B11F09A
:102AD0000E94F31486E0FE013196A0E8B2E0019076
:102AE0000D928A95E1F726960FB6F894DEBF0FBED9
:102AF000CDBFDF91CF911F910F91FF90EF9008957F
:102B000020910B018AE0289F90011124241735079A
:102B100008F0BDCF9F5F90937E0202C09F3FD1F728
:102B2000EE2059F00E949D139FEF1E140CF491E0CB
:102B3000899F802D112480938202FF2059F00E94EA
:102B40009D139FEF1F140CF491E0899F802D112499
:102B50008093830230918202332309F498CF20912D
:102B60008302222309F493CF45EB3403C0011124DF
:102B7000992359F09093820245EB2403900111248C
:102B8000332339F03093830282CF81E08093820235
:102B9000F3CF81E0809383027ACF209107018AE00E
:102BA000289F900111242417350708F085CF9F5FD7
:102BB00090937D0202C09F3FD1F7002359F00E94FD
:102BC000E7139FEF10160CF491E0899F802D1124DC
:102BD00080938402112359F00E94E7139FEF11168E
:102BE0000CF491E0899F802D11248093850230910F
:102BF0008402332309F460CF20918502222309F453
:102C00005BCF45EB3403C0011124992359F0909315
:102C1000840245EB240390011124332339F03093CF
:102C200085024ACF81E080938402F3CF81E08093D4
:102C3000850242CF86E0E0E8F2E0DF011D928A954E
:102C4000E9F710927E0210927D0210927F020895A1
:102C5000EF92FF920F931F93CF93DF93EB01E82F37
:102C6000D11110C0442321F0F0E0E151FD4FE49177
:102C70006E2F7E2F8E2FDF91CF911F910F91FF909E
:102C8000EF9008950D2F10E0282F30E0442329F015
:102C900021513D4FF901249130E0F6E0CF9FC00172
:102CA0001124EFEFF0E0BF010E94532AAB018C2FFB
:102CB00090E0880F991FA5E5A49FB001A59F700D16
:102CC0001124861B970B982F990F980FBF01601B3B
:102CD000710B629FD001639FB00D729FB00D1124E4
:102CE0008B2F9D9FB0011124672F7727EF01C61B03
:102CF000D70BBE01629FE001639FD00D729FD00D84
:102D000011247F01E91AF108E09EB001E19E700DE7
:102D1000F09E700D1124672F7727E61BF70BE29FBB
:102D20008001E39F100DF29F100D1124E12F722FEF
:102D30004230510599F048F44115510569F0413090
:102D4000510581F0EB2F8D2F07C04430510569F0FC
:102D500080F046305105B1F76E2F8DCFE22F7B2FDB
:102D6000812FFACFE22F7D2FF7CFEB2F822F712FFC
:102D7000F3CF7B2F822FED2FEFCF41E00C9428165D
:102D800008950C94BD16CF93DF93762FE901682F39
:102D9000842F0E94C116798368838A83DF91CF9143
:102DA00008958091DB02982F9E7F29F481708260C4
:102DB0008093DB0208958A34E8F381708864F8CF49
:102DC00088E090E00C94F62ACF92DF92EF92FF9287
:102DD0006B017C010E94D116B701A60188E090E04A
:102DE000FF90EF90DF90CF900C94142BEBEDF2E07E
:102DF00083E0808311828FEF8283838314826081DA
:102E00007181828193810C94E4168091DB0280FFB2
:102E100002C08695089580E008959091DF02933076
:102E200018F49F5F9093DF02882351F06091DB02DA
:102E30007091DC028091DD029091DE020C94E41628
:102E4000089581E00C940D179091DF02992319F0F9
:102E500091509093DF02882351F06091DB027091D2
:102E6000DC028091DD029091DE020C94E41608955C
:102E700081E00C94241770E00C94111F60911001F4
:102E80008091DB0280FF0AC080910F0123E0829FC6
:102E9000C001112480529D4F0C943B178091110169
:102EA0009091120123E0829FF0011124E052FD4F26
:102EB000891750F71182108212828F5F3396F8CFF4
:102EC0009091DB0290FF14C09091110120911201AA
:102ED00033E0939FF0011124E052FD4F921710F060
:102EE0000C943E178183608342839F5F3396F6CFB5
:102EF0000895CF93DF9300D00F92CDB7DEB79091B6
:102F0000DB0290FF0AC09E012F5F3F4F0E94C31655
:102F10004B8169818A810E9460170F900F900F90FA
:102F2000DF91CF910895CF93DF93EC01EC81F0E036
:102F3000E651FE4F4491EBEDF2E0628181810E9407
:102F400079178C818F5F8C83DF91CF910895CF9318
:102F5000DF93EC01EBEDF2E0438162818C810E9412
:102F600079178C818F5F8C83DF91CF9108950F93B8
:102F70001F93CF93DF9300D00F92CDB7DEB78C01B4
:102F80008091860281110AC09E012F5F3F4F4FEF53
:102F90006FEF0E94C3168A8180938602F8016481D4
:102FA000613069F08091860240E0662361F040E084
:102FB000623011F44091860280E060E004C06091CC
:102FC000860240E080E00E946017F801848190E072
:102FD000019663E070E00E94672A84830F900F904F
:102FE0000F90DF91CF911F910F910895AF92BF92F3
:102FF000CF92DF92EF92FF920F931F93CF93DF93C5
:1030000000D00F92CDB7DEB7182FF62E042FE22E88
:103010009091DB0290FF29C0E92FE695AE2FB0E03A
:10302000AE55BE4F8C91809392029E7F923059F59F
:103030009E012F5F3F4F812F0E94C3164B816981F4
:103040008A810E9460171093DC02F092DD020093E7
:10305000DE02EE2051F06091DB027091DC02809183
:10306000DD029091DE020E94E4160F900F900F9007
:10307000DF91CF911F910F91FF90EF90DF90CF9054
:10308000BF90AF900895823019F40091DE02DBCF3B
:10309000863019F41091DC02D6CF8930D9F389310A
:1030A00091F6E9518E2F8170D82EE695F0E0E65129
:1030B000FD4FA590B490C12CBB2460911301C6169E
:1030C00018F00E943E17BFCF2C2D30E0A29EC00109
:1030D000A39E900DB29E900D112470E00E94532A81
:1030E000812FD11013C0860F40911101420F532F31
:1030F000511D9A01220F331F240F351F20523D4FBF
:10310000402F6F2D0E94C316C394D7CF861BECCFE0
:10311000EBEDF2E09181282F4381628188E0890FF5
:103120000C94F61781E00C948818EBEDF2E0918195
:10313000282F4381628188EF890F0C94F61781E074
:103140000C949518EBEDF2E0628128E0620F08F430
:103150006FEF282F438181810C94F61781E00C9446
:10316000A218EBEDF2E0628128E0621B08F460E057
:10317000282F438181810C94F61781E00C94B118BB
:10318000EBEDF2E0438128E0420F08F44FEF282FE7
:10319000628181810C94F61781E00C94C018EBEDEC
:1031A000F2E0438128E0421B08F440E0282F6281CE
:1031B00081810C94F61781E00C94CF1820E00C94D8
:1031C000F617EF92FF921F93CF93DF93EC0110E07D
:1031D000EE24EA94F12C60911301161770F00E940E
:1031E0003E179A818C8190FF27C08F5F8C83DF917F
:1031F000CF911F91FF90EF90089520911101422FE0
:10320000410F5527551FCA019A01220F331F280F5E
:10321000391F20523D4F70E0C7010E94672A962F48
:103220008C814091DE026091DD02199F800D112496
:103230000E94C3161F5FCFCF8150D8CFBF92CF92CD
:10324000DF92EF92FF920F931F93CF93DF93FC01D6
:1032500082810FEF80FF01E010E0809113011817C9
:10326000C0F00E943E1780918802013009F051C0E1
:10327000811102C080911301815080938802DF91F7
:10328000CF911F910F91FF90EF90DF90CF90BF9063
:103290000895C0911101C12ED12CCC0DDD2DD11D71
:1032A000CE01880F991FC80FD91FC052DD4F198258
:1032B00018821A8234E0E32EF12CB12C809188021E
:1032C0008B0D813104F18F70082E000C990BC816FC
:1032D000D90691F48091DE028E9DA0018F9D500D44
:1032E000112455954795559547959E016091DD02AE
:1032F0008091DC020E94C316B00EF1E0EF1AF108D3
:10330000E9F61F5FAACF87FFDFCF90911301890FE6
:10331000DBCF90E001966091130170E00E94672A74
:10332000ACCF0F931F93CF93DF93809111019091B6
:10333000120123E0829FF0011124E052FD4F891712
:1033400040F1C0E0D3E060911301C61740F10E9444
:103350003E1720910D0180918702820F8093870292
:1033600090910E01920F90930E01191654F4082EAD
:10337000000C990B409113014150550B8417950790
:103380001CF0219520930D01DF91CF911F910F919A
:1033900008951182108212828F5F3396D0CF0C2F46
:1033A00010E070E0C8010E94672A20911101820F8D
:1033B000482F50E020918702022E000C330B021799
:1033C0001307BCF020910E01022E000C330B2017C6
:1033D00031077CF08D9F9001112420523D4F409188
:1033E000DE026091DD028091DC020E94C316CF5F95
:1033F000AACFFA01EE0FFF1FE40FF51FE052FD4FB9
:10340000118210821282F3CF8F929F92AF92BF925D
:10341000CF92DF92EF92FF920F931F93CF93DF93A0
:10342000EC014C81042F10E09801D8010E94AB2AD6
:103430009B01AC010E94C12A4B015C01E0E2F0E07B
:10344000E01BF10BA5E5B0E0AC019B010E94C12A95
:103450006B017C019F01DF010E94A32A9B01AC014B
:103460000E94CC2A9B01AC01280D391D4A1D5B1D11
:10347000C701B6010E947B2AF22E822F90E039E22A
:103480003F1560F143E0249F900111243595279565
:10349000122F109500E085E5E82EEF1880911301BA
:1034A000081758F10E943E179C8181E0992319F07A
:1034B000903219F48FEF80930C0180910C01890FE9
:1034C0008C83DF91CF911F910F91FF90EF90DF9050
:1034D000CF90BF90AF909F908F90089525E530E0FA
:1034E000B901681B790B9B01220F331F260F371F71
:1034F00037FFCCCF2F5F3F4FC9CF8E2D01FD8F2DD2
:1035000020911101622F600F7727771F9B01220FF7
:10351000331F260F371F20523D4F412F6091DD0290
:103520000E94C3160F5FBACF0F931F93CF93DF9301
:10353000EC0110E000E0909113019017110609F0E2
:103540006CF40E943E178C8190E00196817099275F
:103550008C83DF91CF911F910F91089520911101DC
:10356000A801420F511D9A01220F331F240F351F4E
:1035700020523D4F4C816091DD028091DC02969596
:103580009017110651F04CF0442349F04091DE02AF
:103590000E94C3160F5F1F4FCECF4423B9F340E004
:1035A000F7CFEBEDF2E080818E7F808360817181C7
:1035B000828193810E94E416109293022FEF80E79C
:1035C00092E0215080409040E1F700C000000C9450
:1035D0003E17EBEDF2E080818E7F808310929302A4
:1035E0002FEF80E792E0215080409040E1F700C04B
:1035F00000000C943E17109293028091900281116A
:103600000AC081E0809390028091DB0281708093F8
:103610008F020C94E91A08956091DB02669570E0C0
:103620004BE050E084E191E00E94D42A892B19F408
:1036300081E0809393020E94062390938A028093F4
:10364000890208959091DB0290FF35C0917081113D
:1036500028C092609093DB02662351F06091DB02F8
:103660007091DC028091DD029091DE020E94E416EE
:103670006091DB02669570E04BE050E084E191E000
:103680000E94D42A892BA1F01092930281E08093AA
:103690008C024091DE026091DD028091DC020C948C
:1036A000DE18853210F09864D5CF880F982BD2CFD2
:1036B0000E940C1BEBCF0895682F9091DB0296952A
:1036C00081E0890F853208F081E00C94221B81E0B3
:1036D0000C945C1B682F9091DB0296958FEF890FFD
:1036E00009F484E20C94221B81E00C946A1B61E0D3
:1036F0000C94221BEBEDF2E0808181608083869543
:103700000C94771B8091DB0280FD0C94D11A0C94F1
:103710007A1B60E00C94221B8091910281112EC0D3
:103720000E94400E811104C00E94E50E0E94F61610
:103730000E94E0166093DB027093DC028093DD024E
:103740009093DE026E7F61F40E94F6160E94E016EE
:103750006093DB027093DC028093DD029093DE02C3
:103760000E94D116109293028091DB0280FF03C069
:1037700086950E94891B81E0809391020895EBED6C
:10378000F2E080818160808386950C94891B109281
:10379000900280918F0281110E94BF1B0C940C1B20
:1037A0000F931F93CF93DF9380919302882309F4A3
:1037B00086C080919202E091DB02E695E81BE093DF
:1037C0008B02823091F5F0E0EA51FE4FE491CE2F6A
:1037D000D0E003E917E180918C02882361F0109218
:1037E0008C020E94062390938A0280938902109291
:1037F0008E0210928D020E940623E0918902F091C0
:103800008A028E1B9F0B8F3F9F4708F058C0EC0F1A
:10381000FD1FF0938A02E093890289E892E0F801A3
:10382000DF91CF911F910F910994863049F4F0E018
:10383000ED51FE4FE491CE2FD0E007EA17E1CBCF58
:10384000893051F4E695F0E0E052FE4FE491CE2F3E
:10385000D0E001EE18E1BFCF8F3051F4E695F0E0F3
:10386000E352FE4FE491CE2FD0E00EE119E1B3CF49
:10387000853149F4F0E0E652FE4FE491CE2FD0E0DE
:1038800001E919E1A8CFC8E2D0E004E01AE18831EB
:1038900009F4A1CF833239F4E8EDF1E0C591D49178
:1038A00007EB17E198CFC4EFD1E004E91AE18432C5
:1038B00009F491CFC0EDD7E000EC16E18CCFDF9199
:1038C000CF911F910F910895FA01811101C0FB0161
:1038D0000994CF93DF93C82FD62F0E9405178C171A
:1038E00040F00E9405178D1720F4DF91CF910C94C2
:1038F000671B8C2FDF91CF910C94771B1F93CF9375
:10390000DF93EC01FB011281112309F4C0C00E9476
:10391000590D8272CD3CFCE5DF0709F49CC008F02C
:1039200044C0C73CECE5DE0709F481C0F0F4C43CB8
:103930009CE5D90709F471C048F4C33CDC4509F49F
:1039400069C0812FDF91CF911F910895C53C9CE5FF
:10395000D90709F467C04FE958E162E978E1C63C4C
:10396000DC4579F70E94641C53C0CA3CFCE5DF07C4
:1039700009F467C068F4C83CECE5DE0709F45CC0F4
:103980004EEA58E16DEB78E1C93CDC4559F3D9CFFB
:10399000CB3C9CE5D90709F459C048E357E161E203
:1039A00077E1CC3CDC45F1F2CCCFC23DFCE5DF0752
:1039B00009F462C098F4CF3C9CE5D90709F454C0DF
:1039C00008F44EC0C03DFCE5DF0709F452C0C13D1C
:1039D000DC4509F0B6CF6EE089E048C0C53D9CE506
:1039E000D90709F44FC058F4C33DFCE5DF0709F4DB
:1039F00046C0C43DDC4509F0A4CF88E132C0C63DD5
:103A00009CE5D90709F441C0CE35DD4509F099CFD1
:103A100010E097CF0E94821BFBCF44E75BE167E693
:103A20007BE1A0CF47E65BE164E77BE19BCF42E926
:103A300058E16FE978E196CF4DEB58E16EEA78E115
:103A400091CF4BED58E16CEC78E18CCF4CEC58E128
:103A50006BED78E187CF41E257E168E377E182CF10
:103A600081E00E94771BD4CF65E082E00E94691C50
:103A7000CFCF68E086E0FACF64E18FE0F7CF67E16F
:103A800085E1F4CF62E289E1F1CF83E2EACF11E090
:103A900058CF86E090E00C94EE2A682F86E090E004
:103AA0000C94022BE0E1F3E08081847089628083D2
:103AB0000C944D1D0E94400E811104C00E94E50E21
:103AC0000E94521D0E94491D80931003803320F0F4
:103AD000877088628093100390911003892F817002
:103AE00090FF04C0892F8695869586950C945A1E62
:103AF00080911003982F969596959695953040F461
:103B00009F5F990F990F990F8770892B80931003EE
:103B1000809110038160809310030E944D1D80915D
:103B200010038695869586950C945A1E80911003F5
:103B3000982F987F79F0885080931003887F91E0C8
:103B400009F490E08091100390FB80F980931003BA
:103B50000E944D1D809110038695869586950C9444
:103B60005A1E8091100380FD13C081608093100362
:103B7000813019F489E080931003809110030E9432
:103B80004D1D809110038695869586950C945A1E3E
:103B900008958091100380FF08C08E7F80931003EA
:103BA0000E944D1D80E00C945A1E089580911003D0
:103BB00080FD0C94C91D0C94B11D90911003892FA8
:103BC0008695869586958F5F8F7197708630D8F42D
:103BD000880F880F880F892B809310038091100322
:103BE000887F91E009F490E08091100390FB80F9C8
:103BF000809310030E944D1D809110038695869539
:103C000086950C945A1E90931003E8CF863008F0E6
:103C100085E0909110039770282F220F220F220F1A
:103C2000922B90931003987F21E009F420E090916B
:103C3000100320FB90F9909310030C945A1E0E94DD
:103C4000061E809110030C944D1D9C01FB01828186
:103C5000882349F12E3BFCE53F07C9F040F42C3B9B
:103C6000ECE53E0769F02D3B3C4579F00895203C9A
:103C70009CE5390791F070F0213C3C4589F00895AE
:103C800085E00E941F1E80E0089580E0FACF0E9428
:103C9000961DF9CF0E94781DF6CF0E94D61DF3CF56
:103CA0000E94DD1DF0CF81E00895269A2E98089598
:103CB0002E9808958F929F92AF92BF92EF92FF92AB
:103CC0000F931F93CF93DF93C82F8630C0F58111D8
:103CD00037C0809180008F7D809380000E94581EA5
:103CE000A0918600B09187002C2F30E00E94AB2A73
:103CF00025E030E040E050E00E947B2A89019A01F3
:103D000080918600909187006CE070E00E94532AB9
:103D100060177107D8F0C80169E070E00E94532A6B
:103D200070938B0060938A00DF91CF911F910F9168
:103D3000FF90EF90BF90AF909F908F900895C5E057
:103D400080918000806280938000CACF809186003D
:103D500090918700E0908600F0908700E0918600C7
:103D6000F0918700C6E0D0E0BE010E94532A060F02
:103D7000171F211D311D4801590185E0880C991C30
:103D8000AA1CBB1C8A95D1F7C701BE010E94532A09
:103D90009F0150E040E0260F371F411D511DC50116
:103DA000B4010E947B2A49015A01E0918600F091FA
:103DB0008700CA01B9010E94432A9B01AC01DF01BF
:103DC0000E94C12A9B01AC01C501B4010E94432A93
:103DD0002FE096958795779567952A95D1F700916D
:103DE00086001091870030E020E0061717072807AB
:103DF000390708F095CF609186007091870090CFC9
:103E000008950E94551E82E28093800089E180938C
:103E100081008FEF9FEF90938700809386000C9432
:103E20005A1D6A9A4EB14B7F5EB15460EFB7F89459
:103E30009B01220F331F260F371F280F391F28170A
:103E4000390741F4EFBF8FE594E00197F1F700C027
:103E500000000895DC016D91CD0178E05EB90000AD
:103E600000C067FF4EB9660F000000C000C000C070
:103E70004EB900C07A9591F7E2CFCF93DF93EC0172
:103E8000FB018281882309F420C1C430FDE5DF07EE
:103E9000C8F5CB3F9CE5D90730F49E0122503C4544
:103EA0002431310598F50E94530E9093C6028093F9
:103EB000C502C031FCE5DF0709F4E0C008F061C0CD
:103EC000C8309CE5D90709F4CBC088F5C430FCE5BF
:103ED000DF0709F4B3C0E8F4C2309CE5D90709F460
:103EE000A7C08091C5028260C330DC4509F4A3C03D
:103EF0008091C5029091C6020E94610E0E94D30774
:103F000080E004C0C236EDE5DE0769F2DF91CF91B3
:103F100008958091C5028061C630FCE5DF0709F491
:103F20008AC008F48FC08091C502806284C08091ED
:103F3000C5028D7FCC309CE5D90709F47CC070F4B4
:103F40008091C5028C60CA30FCE5DF0709F473C0BC
:103F500008F48AC08091C5028E7F6DC08091C50231
:103F6000877FCE309CE5D90709F465C08091C502F2
:103F70008B7FCF30DC4508F45EC08091C5028F7E18
:103F80005AC0CD3FFCE5DF0709F474C040F5C431E9
:103F90009CE5D90709F48AC058F4C231FCE5DF0773
:103FA00009F474C008F46EC08091C502837F43C0D9
:103FB000CB3F9CE5D90709F449C008F04DC0C53195
:103FC000DC4509F095CF8091C50282FB992790F9D5
:103FD00021E0922790FB82F990FB83F92CC0C1303D
:103FE0008DE5D80709F458C088F48091C602836033
:103FF000CF3FECE5DE0769F18091C6028D7FC115E8
:10400000DD4538F18091C6028C7F23C0C3308DE539
:10401000D80709F458C008F452C0C236DD4509F08B
:1040200067CF9091C502892F8F7E94FF806103C076
:104030008091C50281608093C5025ACF8091C502EC
:104040008460F9CF8091C5028860F5CF8091C60267
:1040500081608093C6024CCF8091C6028260F9CF06
:104060008091C5028064E7CF0E94D3078091C5028A
:104070008068E1CF8091C6028E7FEBCF8091C50230
:104080008F7DD9CF8091C5028F7BD5CF0E94D3077A
:104090008091C5028F77CFCF8091C602982F9095DF
:1040A00091708E7F892B90FB81F9D3CF0E94D3072B
:1040B0009091C502892F97FB87F98058BCCF81E08A
:1040C0000E94E70E15CF80E0FBCF81E01FCFCF939A
:1040D000DF93EB0186319C4511F50E94590D9A81C1
:1040E000992399F08A7A91E009F490E090939402F0
:1040F000811109C089E20E94340D0E94A90D80E05F
:10410000DF91CF91089585E3F6CF809194028111DC
:1041100004C089E20E943B0DF0CF85E3FBCF81E034
:10412000EFCF0F931F93CF93DF93C42FD22FFC01B8
:1041300082818823C9F0409397020E9406239093BE
:1041400096028093950280E28C0F883008F050C070
:10415000C77081E001C0880FCA95EAF7DF91CF915F
:104160001F910F910C943A0510919702141335C0CA
:1041700080919502909196020E941E23883C9105A1
:1041800060F5C0E2CD0F1D17B9F080E2810F8830D5
:1041900040F4177081E001C0880F1A95EAF70E9479
:1041A0004105C83048F481E09D2F977001C0880F09
:1041B0009A95EAF70E943A05802F0E943205C8308E
:1041C000B8F4D77081E001C0880FDA95EAF7DF9183
:1041D000CF911F910F910C94410580E28C0F883094
:1041E00038F4C77081E001C0880FCA95EAF7EFCFB5
:1041F000DF91CF911F910F9108950F939C01CB01F7
:10420000243F4CE5340759F1A8F4293DFCE53F076C
:1042100001F12A3D4CE53407D1F1283D3C4591F4AC
:1042200006E221EE41EE68ED7CE50E94912080E0FF
:104230000F910895263FFCE53F07E9F0B0F0273FD6
:104240003C45F9F0FC018281882339F110929702F4
:10425000EFCF07E225EE45EE69ED7CE5E6CF06E21D
:1042600021EE40EE64EF7CE5E0CF07E225EE44EE80
:1042700065EF7CE5DACF06E221EE42EE66EF7CE503
:10428000D4CF07E225EE46EE67EF7CE5CECF08E21D
:1042900021E045EE6AED7CE5C8CF81E0C9CF90937F
:1042A000C9018093C801089590939D0280939C0258
:1042B0000895E0919C02F0919D02309721F00190C9
:1042C000F081E02D099480E00895E0919C02F09146
:1042D0009D02309799F020912B01222359F02091D3
:1042E000C50227FF07C0DC012C9111962C93119772
:1042F00026E02C930280F381E02D09940895E0914B
:104300009C02F0919D02309739F022E0DC012C9361
:104310000480F581E02D0994089520919A0230914E
:104320009B022817390771F090939B0280939A02A1
:10433000E0919C02F0919D02309721F00680F78178
:10434000E02D099408952091980230919902281740
:10435000390771F09093990280939802E0919C0242
:10436000F0919D02309721F00084F185E02D0994B1
:104370000895FC01329680912B01882321F08091D1
:10438000C5029EE187FF96E080E0915008F4089511
:1043900021912223D1F38F5FF8CF662301F1209181
:1043A0002B012223F1F02091C50227FF1AC0462FCE
:1043B0004695469546954E3190F4677021E030E081
:1043C00002C0220F331F6A95E2F7840F911DFC0192
:1043D000828190E02823392381E0232B69F480E057
:1043E0000895FC01329608962191261721F0E817CE
:1043F000F907D1F7F4CF81E008959C01FC013296D2
:104400009FEF80E04191461751F09F3F19F4411111
:1044100001C0982F8F5F8630A9F79F3F09F4089558
:10442000290F311D97FD3A95F90162830895FC012A
:10443000329608962191261303C0DF0111971C9232
:10444000E817F907B9F70895E62FE695E695E6959A
:10445000EE3168F4E80FF92FF11D677021E030E0CC
:1044600001C0220F6A95EAF78281822B8283089528
:10447000E62FE695E695E695EE3170F4E80FF92F14
:10448000F11D677021E030E001C0220F6A95EAF764
:104490002095828128232283089520912B012223B5
:1044A00029F02091C50227FD0C9424220C94FD21B3
:1044B00020912B01222329F02091C50227FD0C9485
:1044C00038220C941722FC01329680912B0188230C
:1044D00051F08091C50287FF06C08EE1DF011D9279
:1044E0008A95E9F7089586E0F9CF08950C9475222E
:1044F000811105C081E080939E020C94762282E0B7
:10450000FACF83E080939E020C9476220C9478225A
:1045100081E080939E020C9476220C948822089568
:1045200080911903843031F10E944F0310929F0251
:1045300088E190E020E40FB6F894A895809360009D
:104540000FBE2093600083B7817F846083BF83B7F1
:10455000816083BF7894889583B78E7F83BF0FB6C1
:10456000F894A89580916000886180936000109213
:1045700060000FBE089508950895CF930E94BB2256
:104580000E94FF120E94BC22C0E08C2F0E943612B3
:10459000892B31F4CF5FC530C1F780E0CF9108950A
:1045A00081E0FCCF0E94D3070C94C9031F921FB671
:1045B0001F9211248F939F93AF93BF9380919F027B
:1045C000811113C08091110390911203A0911303E4
:1045D000B09114034196A11DB11D809311039093D6
:1045E0001203A0931303B0931403BF91AF919F9153
:1045F0008F911F901FBE1F90189582E084BD93E09D
:1046000095BD9AEF97BD80936E0008952FB7F894EB
:104610008091110390911203A0911303B0911403A0
:104620002FBF08952FB7F894609111037091120372
:1046300080911303909114032FBF08959C014FB7ED
:10464000F8948091110390911203A0911303B091FB
:1046500014034FBF821B930B089578941F921FB6CB
:104660001F9211248F939F93AF93BF938091110357
:1046700090911203A0911303B09114030196A11D10
:10468000B11D8093110390931203A0931303B09371
:104690001403BF91AF919F918F911F901FBE1F90E8
:1046A000189581E08093E00080E28093D80010921A
:1046B000C9008FE19EE40197F1F700C0000087E098
:1046C00090EBDC018093220390932303A0932403B7
:1046D000B093250388E19CE00FB6F894A8958093E9
:1046E00060000FBE90936000FFCF8091C3020895D9
:1046F00008959C0182E08093E9009FEF8091E8009B
:10470000915085FD06C085ED8A95F1F70000911165
:10471000F5CF8091E80085FF0CC050E040E066E0F6
:1047200070E0C9010E94B2258091E8008E778093E5
:10473000E8000895CF93DF93EC0180912B0188234B
:10474000B1F18091C50287FF32C060E282E08093C0
:10475000E9008FEF9091E800815095FD06C095ED3E
:104760009A95F1F700008111F5CF8091E80085FF5F
:104770001BC080912B0170E050E040E0811104C02B
:1047800050E040E068E070E0CE010E94B2258091E8
:10479000E8008E778093E80080E2FE01A3EAB2E0B1
:1047A00001900D928A95E1F7DF91CF91089568E02D
:1047B00081E0CDCF8093A0027093A2026093A1020A
:1047C00080911903843001F582E08093E9008FEF36
:1047D0009091E800815095FD06C095ED9A95F1F70E
:1047E00000008111F5CF8091E80085FF0DC050E0F9
:1047F00040E063E070E080EA92E00E94B2258091A0
:10480000E8008E778093E8000895BC0184E00C9462
:10481000DA23BC0183E00C94DA2380911803811120
:1048200009C00E9442270E949F278091E200846075
:104830008093E20008951092180308950C94882242
:104840006091150381E0611101C080E00C94812228
:104850009091190381E0943009F080E06091150394
:104860000C94862242E061EC81E00E94BE2642E286
:1048700061EC82E00E94BE269091190381E09430A1
:1048800009F080E0609115030C94782280911B035D
:10489000833009F460C030F48130C9F1823009F40A
:1048A0009CC008958A3009F488C08B3009F46EC02A
:1048B000893009F04FC080911A03813209F04AC053
:1048C00080911E0390911F03029708F043C08091CE
:1048D000E800877F8093E8008091E80082FF36C07F
:1048E0009091F3008091F200029731F48091F100F1
:1048F000813011F0863021F48091F1008093C30261
:104900008091E8008B778093E8000C94F2268091E8
:104910001A03813AF9F48091E800877F8093E800D8
:1049200080911E0390911F03892B61F460E283EA5A
:1049300092E070E00E9401268091E8008B778093DE
:10494000E800089560E090E080E0F3CF80911903E3
:104950008111C2CF089580911A03813AD9F78091CD
:104960001E0390911F03892BA9F78091E800877F90
:104970008093E8008091E80080FFFCCF80912B01BC
:104980008093F1008091E8008E77BDCF80911A036B
:10499000813201F780911E0390911F03892BD1F67C
:1049A0008091E800877F8093E8000E94F226809142
:1049B0001C0380932B010C94D30780911A0381323E
:1049C00049F68091E800877F8093E8000E94F226F4
:1049D00080911D038093C402089580911A03813A47
:1049E00009F0B8CF8091E800877F8093E80080913C
:1049F000E80080FFFCCF8091C402C2CF84B7877FDC
:104A000084BF0FB6F894A895809160008861809368
:104A10006000109260000FBE80E890E00FB6F8943E
:104A200080936100909361000FBE0C948D220E94D0
:104A300042270E949F27E2EEF0E08081846080831D
:104A400078940C94282A8FE191E00C945421809161
:104A500019038530A9F480911903853011F00C9465
:104A6000D2220E949022809117038823A1F30E94F2
:104A7000BD22882381F30E949C250E94D307EBCF9F
:104A8000089508950C944425292F332723303105A8
:104A900019F168F42130310509F444C022303105A0
:104AA00009F445C090E080E030E020E025C02132EC
:104AB000310549F122323105A9F780E490E024E183
:104AC00035E061157105C1F086EB90E02EE534E02C
:104AD0006130710589F0E6CF99278130910581F029
:104AE000009729F00297F1F6EFEEF3E002C0EDE057
:104AF000F4E0849190E09F01FA01318320830895CE
:104B0000EBEFF3E0F6CF89E090E023E234E06115CB
:104B1000710591F389E090E02CE334E06130710598
:104B200059F3C0CF82E190E02CE434E0E5CF8BE391
:104B300090E021E134E0E0CF80E189BD82E189BDF0
:104B400009B400FEFDCF8091D8008F7D8093D800FE
:104B50008091E00082608093E0008091E00081FD20
:104B6000FCCF0895AF92BF92CF92DF92FF920F9346
:104B70001F93CF93DF936C01EB018A010E941127F1
:104B8000F82E811123C00115110539F0F80180813B
:104B90009181C81BD90BC80ED91EB12CA12C20970E
:104BA000A9F08091E80085FD22C08091E8008E7711
:104BB0008093E80001151105A1F0F8018081918131
:104BC000A80EB91EB182A08285E0F82E8F2DDF914C
:104BD000CF911F910F91FF90DF90CF90BF90AF903A
:104BE00008950E9411278823D1F2F82EEFCFF60105
:104BF00081916F018093F1002197FFEFAF1ABF0AF7
:104C0000CECFFC0180912003909121038617970756
:104C1000A0F06115710529F49091E8009E779093BA
:104C2000E80090E06115710551F4911108C0809180
:104C3000E80082FF34C080E00895BC01F2CF80918B
:104C400019038823C1F18530C1F18091E80083FD0B
:104C500030C08091E80082FDEACF8091E80080FFBB
:104C6000E1CF8091F3002091F200382F611571059A
:104C700019F02830310558F091E02830310509F05D
:104C800090E02091E8002E772093E800CBCF81912F
:104C90008093F100615071092F5F3F4FE7CF809102
:104CA0001903882341F0853041F08091E80083FFAB
:104CB000BECF81E0089582E0089583E00895FC016D
:104CC000809120039091210386179707A0F061152A
:104CD000710529F48091E8008E778093E80090E0D8
:104CE0006115710551F4911108C08091E80082FFAF
:104CF00035C080E00895BC01F2CF8091190388236C
:104D0000C9F18530C9F18091E80083FD31C08091FF
:104D1000E80082FDEACF8091E80080FFE1CF80913A
:104D2000F3002091F200382F6115710519F0283039
:104D3000310558F091E02830310509F090E080917C
:104D4000E8008E778093E800CBCF84918093F100C8
:104D50003196615071092F5F3F4FE6CF8091190363
:104D6000882341F0853041F08091E80083FFBDCF7A
:104D700081E0089582E0089583E00895982F9730A8
:104D800028F08F708093E90081E008959093E90006
:104D9000242F762F50E0981731F07091EC0020917D
:104DA000ED005091F00021FD02C09F5FE8CF3091EF
:104DB000EB003E7F3093EB003091ED003D7F309370
:104DC000ED003091EB0031603093EB007093EC001C
:104DD0002093ED005093F0002091EE0027FDE5CFE9
:104DE00080E0089580911A0387FF13C08091E80046
:104DF00082FF06C08091E8008B778093E80004C0B2
:104E0000809119038111F2CF0895809119038823AD
:104E1000D9F38091E80080FFF8CF8091E8008E7789
:104E2000ECCF2091E4003091E50095E6A9012091B6
:104E3000EC00822F817020FF06C08091E80080FF87
:104E400006C080E008952091E80022FD1AC08091FC
:104E50001903882389F0853089F08091EB0085FD66
:104E60000FC02091E4003091E50042175307F9F29A
:104E70009150E1F684E0089582E0089583E008957A
:104E800081E008950E94B0270E94B827E0EEF0E08C
:104E9000808181608083E8EDF0E080818F7780837E
:104EA00019BCA7EDB0E08C918E7F8C9380818F7EB2
:104EB00080831092180308950F931F93CF93DF936D
:104EC0000E94B0270E94B827C8EDD0E088818F7774
:104ED000888388818068888388818F7D888319BCD6
:104EE00010921903109215031092170310921603D3
:104EF00000EE10E0F80180818B7F808388818160E3
:104F0000888342E060E080E00E94BE26E1EEF0E0AF
:104F100080818E7F8083E2EEF0E0808181608083FB
:104F2000808188608083F80180818E7F8083888182
:104F300080618883DF91CF911F910F910895E8EDF3
:104F4000F0E080818F7E8083E7EDF0E080818160FA
:104F5000808384E082BF81E0809318030C945C27F7
:104F6000E8EDF0E080818E7F80831092E20008956A
:104F70001092DA001092E10008951F920F920FB67E
:104F80000F9211242F933F934F935F936F937F93CF
:104F90008F939F93AF93BF93EF93FF938091E10023
:104FA00082FF0BC08091E20082FF07C08091E10088
:104FB0008B7F8093E1000E94272A8091DA0080FF96
:104FC00019C08091D80080FF15C08091DA008E7FD3
:104FD0008093DA008091D90080FF96C080E189BD7E
:104FE00082E189BD09B400FEFDCF81E08093190301
:104FF0000E940D248091E10080FF19C08091E200A1
:1050000080FF15C08091E2008E7F8093E200809146
:10501000E20080618093E2008091D80080628093FA
:10502000D80019BC85E0809319030E942024809148
:10503000E10084FF2BC08091E20084FF27C080E163
:1050400089BD82E189BD89B5982F917080FFFBCF22
:105050008091D8008F7D8093D8008091E1008F7E71
:105060008093E1008091E2008F7E8093E200809146
:10507000E20081608093E20080911503882309F4A7
:1050800049C084E0809319030E9428248091E100A4
:1050900083FF29C08091E20083FF25C08091E10059
:1050A000877F8093E10082E08093190310921503BB
:1050B0008091E1008E7F8093E1008091E2008E7FFD
:1050C0008093E2008091E20080618093E20042E000
:1050D00060E080E00E94BE268091F00088608093AE
:1050E000F0000E941E24FF91EF91BF91AF919F911C
:1050F0008F917F916F915F914F913F912F910F9081
:105100000FBE0F901F90189519BC109219030E94A2
:105110001B2470CF8091E30087FD93E090931903E7
:10512000B3CF1F920F920FB60F9211242F933F937C
:105130004F935F936F937F938F939F93AF93BF939F
:10514000CF93DF93EF93FF93D091E900DF708091CD
:10515000EC00C82FC17080FDC0E81092E90080917A
:10516000F000877F8093F00078940E94D5281092F9
:10517000E9008091F00088608093F000CD2BCF7023
:10518000C093E900FF91EF91DF91CF91BF91AF9173
:105190009F918F917F916F915F914F913F912F914F
:1051A0000F900FBE0F901F9018951F93CF93DF9312
:1051B000CDB7DEB7AA970FB6F894DEBF0FBECDBF4E
:1051C0008AE193E02091F100FC012193CF01F3E00B
:1051D00082329F07B9F70E9446248091E80083FF3E
:1051E0001EC180911A0390911B039A3008F017C1D9
:1051F000E92FF0E0EA5AF44D0C949D2A803899F09A
:10520000823809F00CC180911E038F70873008F03E
:1052100006C18093E9008091EB0085FB882780F927
:105220001092E90006C08091160390911703911126
:1052300082609091E800977F9093E8008093F1005E
:105240001092F1008091E8008E77E5C0882309F480
:10525000D3C0823009F0E3C080911C038111D6C015
:1052600080911E038F702FEF280F263008F0D7C0D3
:105270008093E9002091EB0020FFC8C0933031F407
:105280008091EB0080628093EB00C0C09091EB00B6
:1052900090619093EB0021E030E001C0220F8A95ED
:1052A000EAF72093EA001092EA008091EB00886010
:1052B000EACF8111B4C010911C031F778091E300E5
:1052C0008078812B8093E3008091E800877F809332
:1052D000E8000E94F2268091E80080FFFCCF8091D8
:1052E000E30080688093E30082E0111183E0809303
:1052F000190395C08058823008F091C080911C033A
:1053000090911D038C3D23E09207A1F583E08A83F1
:105310008AE289834FB7F894DE01139620E03EE0DD
:1053200051E2E32FF0E050935700E49120FF03C0D7
:10533000E295EF703F5FEF708E2F90E0EA30C0F0A3
:10534000C7968D939D932F5F243159F74FBF80915E
:10535000E800877F8093E8006AE270E0CE01019662
:105360000E9401268091E8008B778093E80057C067
:10537000C096E7CF60911E0370911F03AE014F5F8F
:105380005F4F0E944225BC01892B09F448C09091CF
:10539000E800977F9093E80089819A810E945F26B8
:1053A000E1CF8038E1F58091E800877F8093E800C5
:1053B000809115038093F10045CF811130C0909109
:1053C0001C03923060F58091E800877F8093E800AD
:1053D000909315030E94F22680911503882311F003
:1053E00084E005C08091E30087FDFACF81E08093DF
:1053F00019030E94322413C080911C03813079F478
:1054000081E0933009F080E0809317031092E90067
:105410008091E800877F8093E8000E94F2268091C7
:10542000E80083FF0AC08091E800877F8093E8004E
:105430008091EB0080628093EB00AA960FB6F894FF
:10544000DEBF0FBECDBFDF91CF911F9108950895AC
:10545000CF93809119038823A1F0C091E900CF7008
:105460009091EC00892F817090FD80E8C82B1092FC
:10547000E9008091E80083FD0E94D528CF70C09399
:10548000E900CF910895DB018F939F930E94C12A79
:10549000BF91AF91A29F800D911DA39F900DB29FD0
:1054A000900D11240895AA1BBB1B51E107C0AA1F30
:1054B000BB1FA617B70710F0A61BB70B881F991FB5
:1054C0005A95A9F780959095BC01CD01089597FB59
:1054D000072E16F4009407D077FD09D00E94532AB6
:1054E00007FC05D03EF4909581959F4F08957095E7
:1054F00061957F4F0895A1E21A2EAA1BBB1BFD01E7
:105500000DC0AA1FBB1FEE1FFF1FA217B307E407A2
:10551000F50720F0A21BB30BE40BF50B661F771FFA
:10552000881F991F1A9469F76095709580959095DA
:105530009B01AC01BD01CF010895EE0FFF1F059047
:10554000F491E02D09940E94AB2A332312F48A1BB4
:105550009B0B0C94BC2AA29FB001B39FC001A39FD8
:10556000700D811D1124911DB29F700D811D11249C
:10557000911D08950E94AB2AB7FF0895821B930BDB
:1055800008950E94AB2AA59F900DB49F900DA49FF3
:10559000800D911D11240895B7FF0C94C12A0E941B
:1055A000C12A821B930B0895FC014150504030F0FA
:1055B00001900616D1F73197CF01089588279927D2
:1055C0000895FB01DC0104C08D910190801921F444
:1055D00041505040C8F7881B990B0895F999FECFA8
:1055E00092BD81BDF89A992780B50895A6E1B0E0F3
:1055F00044E050E00C94282BA8E1B0E042E050E0F9
:105600000C94282B262FF999FECF92BD81BDF89AD4
:10561000019700B4021639F01FBA20BD0FB6F894F6
:10562000FA9AF99A0FBE08950396272F0E94032B2A
:105630000E94022B252F0E94032B242F0C94032B56
:105640000196272F0E94032B0C94022BDC01CB0127
:10565000FC01F999FECF06C0F2BDE1BDF89A319682
:1056600000B40D9241505040B8F70895F894FFCF20
:1056700082058205B305B30546066206E205E2052A
:105680006D06F906080708076007E205E2056907E5
:10569000E207E207EB07EB07ED07EB07EB07EB078A
:1056A000E207E207F207EB07EB07F207FE282629DD
:1056B0000F2A26290F2A59297A290F2AD129DD29CB
:1056C000C8003F022808641E140A321E01010200AD
:1056D0001000101001191A1B1C1D1E1F20212275FD
:1056E000239A23792309240524782301E200E90081
:1056F000EA00B500B600B700CD008301CC008A01F6
:10570000920194012102230224022502260227028B
:105710002A02B300B4006F007000818283E200E9C6
:1057200000EA00B500B600B700CD008301CC008AC6
:10573000019201940121022302240225022602275C
:10574000022A02B300B4006F007000818283F0F17E
:10575000C66766379431303534979633F49091921A
:1057600093950001020202020606060909090909C9
:10577000090F0F0F0F0F0F151515181919191919F2
:0857800019191919192324005D
:00000001FF
